S01500006761726167655F73797374656D2E73726563A4
S11300000C942A000C9496000C9401010C94470063
S11300100C9447000C9447000C9447000C94470040
S11300200C9447000C9447000C9447000C94470030
S11300300C9447000C9447000C9447000C94470020
S11300400C9447000C9447000C9447000C94470010
S11300500C94470011241FBECFE5D8E0DEBFCDBF0E
S113006010E0A0E6B0E0ECE8F8E002C005900D92E4
S1130070A039B107D9F710E0A0E9B0E001C01D92A2
S1130080A139B107E1F70E9449000C9444040C948F
S113009000008A988B9885B7816085BF85B7826098
S11300A085BF8BB780648BBF85B7846085BF85B7F8
S11300B0886085BF8BB780688BBF78940E94BE012F
S11300C00E94EC020E94D30282E090E00E94DA02D5
S11300D082E090E00E94F30281E00E94640180E6E5
S11300E090E00E9452026091900070E080E090E005
S11300F00E9468028BE690E00E94520280EC0E940B
S113010064018091900063E070E0681B71098827A6
S113011077FD8095982F0E94680281E790E00E9405
S1130120520289E790E00E945202FFCF1F920F9281
S11301300FB60F9211242F933F934F935F936F93B6
S11301407F938F939F93AF93BF93EF93FF9380918C
S113015090008330F0F58F5F8093900081E00E94DF
S1130160640180E690E00E9452026091900070E089
S113017080E090E00E9468028BE690E00E945202C8
S113018080EC0E9464018091900063E070E0681B41
S11301907109882777FD8095982F0E94680281E76E
S11301A090E00E94520289E790E00E94520283E0AC
S11301B090E00E94DA028FEF93EDA0E3815090402B
S11301C0A040E1F700C0000082E090E00E94DA0263
S11301D007C081E00E94640184E890E00E9452021A
S11301E0FF91EF91BF91AF919F918F917F916F910B
S11301F05F914F913F912F910F900FBE0F901F90E1
S113020018951F920F920FB60F9211242F933F93BC
S11302104F935F936F937F938F939F93AF93BF930A
S1130220EF93FF93809190008823E9F181508093AC
S1130230900081E00E94640180E690E00E945202F6
S11302406091900070E080E090E00E9468028BE68C
S113025090E00E94520280EC0E9464018091900020
S113026063E070E0681B7109882777FD8095982FFB
S11302700E94680281E790E00E94520289E790E0C0
S11302800E94520283E090E00E94F3028FEF93ED0C
S1130290A0E381509040A040E1F700C0000082E05C
S11302A090E00E94F302FF91EF91BF91AF919F9173
S11302B08F917F916F915F914F913F912F910F900B
S11302C00FBE0F901F901895D998982F92959F70F4
S11302D090FF02C0DB9A01C0DB98982F9295969507
S11302E0977090FF02C0DC9A01C0DC98982F929519
S11302F096959695937090FF02C0DD9A01C0DD98A3
S1130300882314F4DE9A01C0DE98DA9AEFE9FFE05C
S11303103197F1F700C00000DA98EFE9FFE0319778
S1130320F1F700C0000080FF02C0DB9A01C0DB9837
S1130330982F969590FF02C0DC9A01C0DC98982F04
S11303409695969590FF02C0DD9A01C0DD9886953A
S11303508695869580FF02C0DE9A01C0DE98DA9AFF
S11303608FE99FE00197F1F700C00000DA98EFE908
S1130370FFE03197F1F700C0000008958AB38E675B
S11303808ABB83E00E9464018FE79EE30197F1F743
S113039000C0000083E00E946401AFE7BEE3119750
S11303A0F1F700C0000083E00E9464018FE79EE340
S11303B00197F1F700C0000082E00E94640188E226
S11303C00E94640188E00E94640181E00E9464014B
S11303D086E00E9464018FEF99EFA0E08150904085
S11303E0A040E1F700C000008CE00E946401089581
S11303F0D99A982F92959F7090FF02C0DB9A01C002
S1130400DB98982F92959695977090FF02C0DC9A8E
S113041001C0DC98982F929596959695937090FFCD
S113042002C0DD9A01C0DD98882314F4DE9A01C06D
S1130430DE98DA9AEFE9FFE03197F1F700C00000A7
S1130440DA98EFE9FFE03197F1F700C0000080FF90
S113045002C0DB9A01C0DB98982F969590FF02C0EA
S1130460DC9A01C0DC98982F9695969590FF02C06F
S1130470DD9A01C0DD9886958695869580FF02C039
S1130480DE9A01C0DE98DA9A8FE99FE00197F1F7CE
S113049000C00000DA98EFE9FFE03197F1F700C0FF
S11304A0000008950F931F93CF938C01FC0180816A
S11304B0882351F0C0E00E94F801CF5FF801EC0FEF
S11304C0F11D80818823B9F7CF911F910F91089571
S11304D08F929F92AF92BF92EF92FF921F93CF930E
S11304E0DF93CDB7DEB72A970FB6F894DEBF0FBE01
S11304F0CDBFDC01CB01AE014F5F5F4F2AE0FA01B3
S113050011922A95E9F70097A105B10521F480E33A
S11305100E94F80138C010E00F2EFAE08F2EF0E0B0
S11305209F2EF0E0AF2EF0E0BF2EF02DE12EFF2441
S1130530E7FCF09421E030E02C0F3D1FE20EF31EA7
S1130540BC01CD01A50194010E942204605DF70164
S11305506083822F932FA42FB52F1F5F0097A105CF
S1130560B10521F711507AF0E12FFF27E7FDF0954F
S113057021E030E02C0F3D1FE20FF31F80810E9429
S1130580F801115088F72A960FB6F894DEBF0FBE13
S1130590CDBFDF91CF911F91FF90EF90BF90AF90AF
S11305A09F908F9008958D9A8FB583688FBD8DE04D
S11305B08EBD0895BC0180E090E00E94310324E1E7
S11305C03EEA43E251E40E9497030E940503DC01E2
S11305D0CB019BBD8ABD08958C9A8FB583628FBD74
S11305E08DE08EBD0895BC0180E090E00E9431034F
S11305F024E13EEA43E251E40E9497030E9405038A
S1130600DC01CB0199BD88BD089570D088F09F5757
S113061090F0B92F9927B751A0F0D1F0660F771F4A
S1130620881F991F1AF0BA95C9F712C0B13081F02A
S113063077D0B1E0089574C0672F782F8827B85F0A
S113064039F0B93FCCF3869577956795B395D9F78B
S11306503EF490958095709561957F4F8F4F9F4F95
S11306600895E89409C097FB3EF4909580957095A1
S113067061957F4F8F4F9F4F9923A9F0F92F96E9EA
S1130680BB279395F695879577956795B795F1115F
S1130690F8CFFAF4BB0F11F460FF1BC06F5F7F4FFC
S11306A08F4F9F4F16C0882311F096E911C077230E
S11306B021F09EE8872F762F05C0662371F096E817
S11306C0862F70E060E02AF09A95660F771F881FE6
S11306D0DAF7880F9695879597F9089557FD9058FE
S11306E0440F551F59F05F3F71F04795880F97FBF2
S11306F0991F61F09F3F79F08795089512161306AC
S11307001406551FF2CF4695F1DF08C016161706DA
S11307101806991FF1CF869571056105089408950F
S1130720E894BB2766277727CB0197F908950BD068
S113073078C069D028F06ED018F0952309F05AC01B
S11307405FC01124EECFCADFA0F3959FD1F3950FBC
S113075050E0551F629FF001729FBB27F00DB11D41
S1130760639FAA27F00DB11DAA1F649F6627B00DD1
S1130770A11D661F829F2227B00DA11D621F739FBA
S1130780B00DA11D621F839FA00D611D221F749FC8
S11307903327A00D611D231F849F600D211D822F0F
S11307A0762F6A2F11249F5750408AF0E1F0882356
S11307B04AF0EE0FFF1FBB1F661F771F881F915063
S11307C05040A9F79E3F510570F014C0AACF5F3F77
S11307D0ECF3983EDCF3869577956795B795F79596
S11307E0E7959F5FC1F7FE2B880F911D969587951E
S11307F097F9089597F99F6780E870E060E008959D
S11308009FEF80EC089500240A9416161706180624
S11308100906089500240A94121613061406050600
S11308200895092E0394000C11F4882352F0BB0F91
S113083040F4BF2B11F460FF04C06F5F7F4F8F4FF4
S11308409F4F0895A1E21A2EAA1BBB1BFD010DC0E8
S1130850AA1FBB1FEE1FFF1FA217B307E407F5076C
S113086020F0A21BB30BE40BF50B661F771F881F48
S1130870991F1A9469F760957095809590959B01DE
S10F0880AC01BD01CF010895F894FFCF36
S113088C546865726520617265200020636172731F
S113089C0020706C616365730020417661696C6142
S11308AC626C650066756C6C2067617261676500CB
S9030000FC
